:020000040800F2
:10000000580700204D020008C3120008BF12000864
:10001000C112000807030008A11900080000000031
:10002000000000000000000000000000E7120008CF
:100030000903000800000000E51200086D13000825
:1000400067020008670200086702000867020008EC
:1000500067020008670200086702000867020008DC
:1000600067020008670200086702000867020008CC
:1000700067020008670200086702000867020008BC
:1000800067020008670200086702000867020008AC
:10009000670200086702000867020008670200089C
:1000A000670200086702000867020008670200088C
:1000B000670200086702000867020008670200087C
:1000C000670200086702000867020008670200086C
:1000D0006702000867020008670200086D1900083F
:1000E000670200086702000867020008670200084C
:1000F000670200086702000867020008670200083C
:10010000670200086702000867020008670200082B
:10011000670200086702000867020008670200081B
:10012000670200086702000867020008670200080B
:1001300067020008670200086702000867020008FB
:1001400067020008670200086702000867020008EB
:1001500067020008670200086702000867020008DB
:1001600067020008670200086702000867020008CB
:10017000670200086702000867020008000000002C
:1001800067020008670200086702000867020008AB
:10019000670200086702000867020008670200089B
:1001A00067020008670200086702000800F002F812
:1001B00000F03CF80AA090E8000C82448344AAF1C5
:1001C0000107DA4501D100F031F8AFF2090EBAE8C3
:1001D0000F0013F0010F18BFFB1A43F0010318477B
:1001E0007018000090180000103A24BF78C878C139
:1001F000FAD8520724BF30C830C144BF04680C602D
:10020000704700000023002400250026103A28BF74
:1002100078C1FBD8520728BF30C148BF0B60704778
:100220001FB501F007FC1FBD10B510BD00F031F87F
:100230001146FFF7F5FF01F0BFFB00F04FF803B4E4
:10024000FFF7F2FF03BC00F057F8000009488047B1
:1002500009480047FEE7FEE7FEE7FEE7FEE7FEE7A8
:10026000FEE7FEE7FEE7FEE704480549054A064BC0
:100270007047000071130008AD010008580100200C
:10028000580700205803002058030020704770478B
:100290007047754600F02CF8AE4605006946534697
:1002A00020F00700854618B020B5FFF7DDFFBDE858
:1002B00020404FF000064FF000074FF000084FF0CD
:1002C000000B21F00701AC46ACE8C009ACE8C0095E
:1002D000ACE8C009ACE8C0098D46704710B50446CB
:1002E000AFF300802046BDE81040FFF7A8BF000034
:1002F00000487047F800002001491820ABBEFEE717
:10030000260002007047FEE7704700002DE9F84F15
:10031000DFF8A091002209F1040A0AF1040B4FF062
:100320000F080BF1040E01260B6896403340B342D0
:1003300071D14C68022C01D0122C11D1D40800EBE1
:1003400084073D6A5407E40E08FA04FC25EA0C050C
:10035000D1F810C00CFA04FC4CEA050CC7F820C018
:1003600007685400032591F804C0A5400CF0030C65
:10037000AF430CFA04FC4CEA070CC0F800C04F680D
:10038000012F05D0022F03D0112F01D0122F11D130
:100390008768D1F80CC0AF430CFA04FC4CEA070C98
:1003A000C0F808C04768B7430E79C6F300169640F8
:1003B0003E434660C668AE438D68A5403543C56080
:1003C0004C68E4006FD53C4C256845F480452560B9
:1003D000246822F0030504F480440094374C2E195D
:1003E000D6F808789407250F08FA05F4A743344C8B
:1003F000A04201D100242EE0324CA04201D10124C0
:1004000029E0314CA04201D1022424E02F4CA0422B
:1004100002D103241FE046E02D4CA04201D1042468
:1004200019E02C4CA04201D1052414E02A4CA04232
:1004300001D106240FE0294CA04201D107240AE093
:10044000274CA04201D1082405E0264CA04201D14E
:10045000092400E00A24AC403C43C6F80848D9F817
:1004600000404D464E689C43F60300D51C432C606B
:10047000DAF8004055464E689C43B60300D51C434D
:100480002C60DBF800405D464E689C43F60200D5C8
:100490001C432C60DEF8004075464E689C43B60253
:1004A00000D51C432C60521C102AFFF43CAFBDE861
:1004B000F88F0000003C0140443802400030014009
:1004C000000002400004024000080240000C02400C
:1004D000001002400014024000180240001C0240BC
:1004E00000200240002402400AB1816170470904E3
:1004F000FBE700000148006870470000140000207E
:1005000002480168491C0160704700001400002087
:100510000B4810B5016841F400710160016841F4B5
:1005200080610160016841F480710160052000F084
:1005300047F80F2000F006F800F015F8002010BD75
:10054000003C024010B5044600F094F94FF47A7173
:10055000B0FBF1F000F0A8FB00222146501E00F095
:100560000FF8002010BD704700F01F0201219140DC
:100570004009800000F1E020C0F800117047000041
:10058000F0B40E4B1B68C3F30223C3F10704042C21
:1005900000D904241D1D072D01D2002300E0DB1E1D
:1005A000012606FA04F56D1E0D409D409E40761E04
:1005B000164045EA0601F0BC00F084BE0CED00E0F8
:1005C000064A00F0070110684FF6FF03184040EAA2
:1005D0000120034908431060704700000CED00E063
:1005E0000000FA052DE9F8431D48016841F08051EB
:1005F00001600068012700F080500090380490FAF4
:10060000A0F0DFF86080B0FA80F048F82070FFF7C3
:1006100071FF04464FF47A75134E04E0FFF76AFF4A
:10062000001BA84213D87068C003F7D54FF4003000
:1006300090FAA0F0B0FA80F048F82070FFF75AFF67
:10064000044607E0FFF756FF001BA84202D903202B
:10065000BDE8F88370688003F4D50020F8E7000057
:100660004038024000000E42007000402DE9F05F6B
:10067000DFF8F8A104460F46DAF80000DFF8F08151
:1006800000F00F02C8B27A49814641F2883608F17B
:100690000808BA4261D202468AF80020DAF800005F
:1006A00000F00F00B8427DD12078800707D5D8F838
:1006B0000020A36822F0F0021A43C8F80020207836
:1006C000C0072DD0606801281AD002281BD003284B
:1006D00019D009688907002964DAD8F8001047465C
:1006E00021F003010143C8F80010FFF703FF05469E
:1006F000606801280FD0022818D003281CD027E0FA
:1007000009688903E7E709688901E4E7FFF7F2FE72
:10071000401BB04258D83868C0F381000128F5D199
:1007200088E0FFF7E7FE401BB0424DD83868C0F3C1
:1007300081000228F5D17DE03868FFF7DBFE401B21
:10074000B042F9D940E0FFF7D5FE401BB0423BD89C
:10075000386810F00C0FF6D16CE02078800707D5D0
:10076000D8F80020A36822F0F0021A43C8F800204D
:100770002078C0074CD06068012828D0022829D0F2
:10078000032827D009688907002949DAD8F800200A
:1007900022F003020243C8F80020FFF7ABFE054633
:1007A000606800E03CE001281DD0022829D0032821
:1007B00038D0B3464646306810F00C0F28D0FFF70B
:1007C00099FE411B5945F6D90320BDE8F09F096801
:1007D0008903D9E709688901D6E7FFF78BFE411B3A
:1007E000594502D9F0E7B34646463068C0F3810068
:1007F0000128F2D10CE0FFF77DFE411B594502D9DB
:10080000E2E7B34646463068C0F381000228F2D1E1
:100810008AF80090DAF8000000F00F00B84209D022
:100820000120D2E744462068FFF764FE401BB04237
:10083000F9D9C9E72078400707D5D8F80010E26851
:1008400021F4E0511143C8F800102078000708D5C2
:10085000D8F80010226921F4604141EAC201C8F8C9
:1008600000100F20FFF76EFE0020AEE7003C0240B4
:100870000038024010B500F043F808490968F0223A
:1008800092FAA2F201F0F001B2FA82F2D140044AE7
:10089000515CC8400349086010BD000008380240A0
:1008A0003E1A00080000002010B5FFF7E3FF0749DB
:1008B00009684FF4E05292FAA2F201F4E051B2FA60
:1008C00082F2D140024A515CC84010BD0838024053
:1008D0003E1A000810B5FFF7CDFF074909684FF42D
:1008E000604292FAA2F201F46041B2FA82F2D1407F
:1008F000024A515CC84010BD083802403E1A000848
:1009000030B51948006810F00C01184812D0184C86
:1009100004290ED008290DD1134A121F116813683B
:1009200001F03F015D0247F6C07304D5B4FBF1F05E
:1009300003E0204630BDB0FBF1F01168194093FA96
:10094000A3F3B3FA83F3D940484311684FF440321C
:1009500092FAA2F201F44031B2FA82F2D140491C7B
:100960004900B0FBF1F030BD083802400024F4002B
:1009700040787D012DE9F84F04460078DFF8FCA2AD
:10098000BF4DC0074FF0000648D0DAF800105046BF
:10099000C1F38101012908D00068C0F38100022859
:1009A0000AD1281D0068400206D52868800335D585
:1009B0006068002873D031E0DFF8C49209F10209C1
:1009C00089F80060FFF796FD074641F2883804E099
:1009D000FFF790FDC11B41457AD828688003F7D402
:1009E000207989F80000606860B1FFF783FD074651
:1009F00004E0FFF77FFDC11B4145EDD82868800367
:100A0000F7D50BE0FFF776FD074604E0FFF772FD30
:100A1000C11B4145E0D828688003F7D42078DFF86F
:100A20006492800744D5DAF80010504611F00C0F9C
:100A30004FF0F80809D00068C0F3810002280BD1FC
:100A40008E48001F0068400206D42868800714D52D
:100A5000E068012823D110E0E068D0B10120C9F896
:100A60000000FFF747FD074604E0FFF743FDC01B0A
:100A70006428B1D828688007F7D5286898FAA8F2C2
:100A80002169B2FA82F220F0F80091400843286010
:100A90000EE0C9F80060FFF72DFD074605E0EAE02B
:100AA000FFF728FDC01B642812D828688007F7D4F8
:100AB0002078000725D5DFF8C4817348616908F103
:100AC0006C0881B101210160FFF714FD074605E0C4
:100AD0007EE0FFF70FFDC01B642879D8D8F800002E
:100AE0008007F6D50DE00660FFF704FD074604E039
:100AF000FFF700FDC01B64286AD8D8F80000800703
:100B0000F6D42078400753D55C483830016841F06E
:100B1000805101600068DFF8748100F0805000901F
:100B2000D8F8001041F48071C8F80010FFF7E2FC1B
:100B3000074604E0FFF7DEFCC01B642848D8D8F85D
:100B40000000C005F6D5DFF834B10BF1680B8BF867
:100B50000060FFF7CFFC074641F2883804E0FFF75A
:100B6000C9FCC11B41457ED8DBF800008007F6D4E4
:100B7000207A8BF80000A06868B1FFF7BBFC07463D
:100B800004E0FFF7B7FCC11B41456CD8DBF800005F
:100B90008007F6D50CE0FFF7ADFC074604E0FFF751
:100BA000A9FCC11B41455ED8DBF800008007F6D4E4
:100BB000A069E8B3DAF80010C1F3810102295AD024
:100BC000022806D0C9F86060FFF794FC04464DE0A7
:100BD00049E04F46C9F86060FFF78CFC064604E028
:100BE000FFF788FC801B64283DD828688001F7D473
:100BF000D4E90701084347F6C07191FAA1F1626A8E
:100C0000B1FA81F18A40A16A4FF0FF3303EB510141
:100C10004FF4403393FAA3F3B3FA83F399400A43B2
:100C200010434FF0706292FAA2F2B2FA82F200E040
:100C30001FE0E16A914008431049091F0860012044
:100C40003866FFF757FC044604E0FFF753FC001B2F
:100C5000642808D828688001F7D50AE0FFF74AFC25
:100C6000001B642802D90320BDE8F88F28688001A2
:100C7000F4D40020F8E70120F6E70000083802402D
:100C80000038024000004742800E4742007000409A
:100C90004FF0E0210428086903D020F00400086127
:100CA000704740F00400FAE710B5401EB0F1807FB5
:100CB00001D3012010BD4FF0E02460610F216017C7
:100CC00000F000FB0020A06107202061002010BD83
:100CD00070B5044690F838000D4601280DD0012665
:100CE00084F83860022084F8390042B1042A18D010
:100CF000082A2AD00C2A4DD139E0022070BD206884
:100D000000F0F4FB2068816941F0080181612068EE
:100D1000816921F004018161206881692A69114398
:100D200011E0206800F00EFC2068816941F4006148
:100D300081612068816921F4806181612068816915
:100D40002A6941EA0221816124E0206800F02CFC3C
:100D50002068C16941F00801C1612068C16921F0C2
:100D60000401C1612068C1692A69114311E020684A
:100D700000F04AFC2068C16941F40061C16120684B
:100D8000C16921F48061C1612068C1692A6941EAB1
:100D90000221C16184F83960002084F8380070BDF8
:100DA00010B5040003D094F8390010B107E0012019
:100DB00010BD002084F83800204600F00DF8022015
:100DC00084F83900211D206800F024FB012084F8FC
:100DD0003900002010BD000070B50068194986B0C8
:100DE00088422CD11848016841F002010160006876
:100DF00000F00200059014481038016841F002012B
:100E0000016000680125022400F0020000950F4EE9
:100E1000CDE902540590694601953046FFF776FA10
:100E20000420009069463046FFF770FA0094CDE93F
:100E300001450394694630460494FFF767FA06B00B
:100E400070BD000000040040403802400004024031
:100E500010B504460068012200F03CFB08482168F8
:100E6000814202D00748814203D1486C40F40040DF
:100E700048642068016841F001010160002010BD54
:100E8000000001400004014010B50268044631B181
:100E9000042908D0082920D00C2908D121E0D068E5
:100EA00040F0020002E0D06840F00400D06001226F
:100EB000206800F00FFB0D492068884202D00C49E1
:100EC000884203D1416C41F40041416420680168CB
:100ED00041F001010160002010BDD06840F0080021
:100EE000E4E7D06840F01000E0E7000000000140B7
:100EF00000040140704738B5016804460868CA68B4
:100F0000C0F3000002F4807238B132B1086848685A
:100F10000090E06B40F00100E06308684A69C0F3AC
:100F2000400002F0010238B132B108684868009010
:100F3000E06B40F00400E06308684A69C0F3800099
:100F400002F0010238B132B1086848680090E06BE5
:100F500040F00200E06308684A69C0F3C00002F094
:100F6000010238B132B1086848680090E06B40F087
:100F70000800E0630868C968C0F3401001F0200170
:100F800018B111B1204600F067FB20680168C06805
:100F9000C1F3C01100F0800019B110B1204600F07B
:100FA00069FC21680868CA68C0F3801002F040023A
:100FB000012568B162B1CA68204622F04002CA60C9
:100FC00094F8391032290CD080F8395000F076F9B5
:100FD000E06B002804D084F839502046FFF78AFFE0
:100FE00038BD222180F83910F0E770B5040004D034
:100FF00094F83900002510B106E0012070BD84F896
:101000003850204600F020F8022084F8390020688B
:10101000C16821F40051C160204600F071FB2068D6
:10102000016921F4904101612068416921F02A01A0
:1010300041612068C16841F40051C160E56301204D
:1010400084F83900002070BD2DE9F04705462F498E
:1010500000682F4C02260F1586B04FF001084FF0A4
:101060000709884221D1206840F0010020602068F3
:1010700000F00100059026481430016841F010018D
:1010800001600068DFF88CA000F01000059060158A
:101090008DE84101CDE9036969465046FFF736F90D
:1010A000694650460097FFF731F91B492868884286
:1010B00029D1206840F002002060206800F0020082
:1010C000059013481030016841F4802101600068E8
:1010D000CDE9007600F48020CDE904900F4CCDE9F5
:1010E000028669462046FFF711F9E114009169462E
:1010F0002046FFF70BF9032211462720FFF740FA9D
:101100002720FFF731FA06B0BDE8F0870010014054
:101110003038024000000240004800400004024015
:1011200090F83930012B01D0122B2BD131B32AB3D7
:1011300090F83830012B25D0012380F838308162B7
:101140008285C2850022C26390F83910122917D017
:10115000222180F839100168CB6843F48073CB609A
:1011600001684B6943F001034B6180F83820006847
:10117000C16841F02001C160002070470120704724
:101180003221E6E70220704770B5006815498842B1
:1011900027D11548144C4FF47A73007860700122FF
:1011A000611C124800F026F86078114D312809D1F1
:1011B000012211462846FFF797F90022042128460C
:1011C000FFF792F9607830280BD1012211462846AA
:1011D000FFF78AF92846BDE8704001220421FFF795
:1011E00083B970BD004800401C000020780000203A
:1011F000000402402DE9F047044690F83900994672
:101200000D46012801D0222856D125B31AB394F8EF
:101210003800012850D0012684F838600027E763A1
:1012200094F83900222819D0122084F83900A284B9
:10123000E2844FF48058E08C4B46401EE084A06866
:101240004FF0000240454FF08001204613D100F0DE
:1012500044FB08BB04E00120BDE8F0873220E4E74E
:1012600028882168C0F308004860206908B16D1C17
:1012700008E0AD1C06E000F030FB68B9216815F805
:10128000010B4860E08C0028D5D14B46002240215C
:10129000204600F022FB08B10320DDE794F8390076
:1012A000322805D084F8396084F838700020D3E7FC
:1012B000222084F83900F7E70220CDE77047FEE7E7
:1012C000FEE770470907090E002806DA00F00F0054
:1012D00000F1E02080F8141D704700F1E02080F854
:1012E000001470477047704770B51E4C92B00025CF
:1012F000266846F080562660246804F080541194D5
:10130000194C266846F44046266024680DF1240CEA
:1013100004F440441194012400940194022406949E
:101320008CE80D006605CDE907616846FFF722FBF2
:1013300000B1FEE7FFF756F900B1FEE70CA90F2058
:1013400081E831004FF4A0500F904FF4805010907E
:1013500005210CA8FFF78AF9002800D0FEE712B09B
:1013600070BD00004038024000700040FFF7C8B870
:101370001048016841F4700101600F48016841F0B4
:10138000010101600C4A00210832116002680B4B18
:101390001A400260031D0A4A1A60026822F4802281
:1013A000026005480C300160024958068039086027
:1013B0007047000088ED00E000380240FFFFF6FEB5
:1013C00010300024124810B51049016059214160C5
:1013D0000021816040F2F311C160FFF7E1FC0C488D
:1013E00060213C300C220160FA21416002218160C1
:1013F00001463C38FFF76CFC0C210548FFF728FD3F
:10140000BDE810400C210248FFF73EBD000400403B
:1014100020000020F0B50268234D244E244FDFF851
:1014200094C0254B4FF0804EA84209D0704507D09C
:10143000B04205D0B84203D0604501D0984203D1F4
:1014400022F070044A682243A8421BD0704519D08C
:10145000B04217D0B84215D0604513D0984211D091
:10146000164CA0420ED0164CA0420BD0154CA042F8
:1014700008D0154CA04205D0144CA04202D0144C08
:10148000A04203D122F44074CA68224302608A68F1
:10149000C2620A688262A84201D0984201D10969F9
:1014A000016301214161F0BD0000014000040040E2
:1014B00000080040000C00400004014000400140D2
:1014C000004401400048014000180040001C00405A
:1014D0000020004010B50123046A8B409C43046245
:1014E000036A8A401343036210BD000030B5026AEC
:1014F00022F001020262056A426883690C6823F0E7
:1015000073031C438B6825F002052B430B4DA84247
:1015100002D00B4DA8420BD123F00805CB6822F472
:1015200040722B434D6923F0040315438A692A4313
:101530004260846149684163036230BD000001403C
:101540000004014030B5026A22F010020262036A10
:10155000426884690D6824F4E64444EA05248D68F1
:1015600023F0200343EA05130D4DA84202D00D4D90
:10157000A8420ED1CD6823F0800343EA05134D69DC
:1015800022F4406242EA85028D6923F0400342EA78
:1015900085024260846149688163036230BD000056
:1015A000000001400004014030B5026A22F480725C
:1015B0000262036A4268C46923F4007324F073056D
:1015C0000C682C438D6843EA05230D4DA84202D0D8
:1015D0000C4DA8420ED1CD6823F4006343EA0523E5
:1015E0004D6922F4405242EA05128D6923F480636A
:1015F00042EA05124260C4614968C163036230BDBA
:10160000000001400004014030B5026A22F480521B
:101610000262036A4268C4690D6824F4E64444EA3D
:1016200005248D6823F4005343EA0533084DA8428E
:1016300002D0084DA84204D14D6922F4804242EA0A
:1016400085124260C46149680164036230BD0000D4
:10165000000001400004014010B590F83910222923
:1016600003D0322901D0022010BD8168B1F5805F1E
:1016700011D00169002901681FD0496801F07F037A
:10168000816A4A1C82620B70C18D491E0904090CD3
:10169000C18518D02FE00269816A002A0268526869
:1016A00005D0D2B20A80816A491C8162ECE7C2F39C
:1016B00008020A80816A891CF7E74A68816A4B1C24
:1016C00083620A70E0E70168CA6822F02002CA60FB
:1016D00090F83910322910D00168CA6822F480725B
:1016E000CA6001684A6922F001024A61012180F85A
:1016F0003910FFF749FD002010BD1221F7E7000067
:101700002DE9F041044600680169E26821F4405186
:101710000A4302612068C16849F20C62914323695F
:10172000A268E5691A4363692B431A430A43C260FE
:101730002068416921F44072A16911434161E06967
:1017400064263225B0F5004F484A494920681DD02B
:10175000884201D0904269D1FFF7BCF800EBC0018C
:1017600001EB00106168B0468900B0FBF1F1B1FBFC
:10177000F8F6FFF7AFF800EBC00101EB001061686D
:101780008900B0FBF1F7FFF7A5F868E0884201D0C7
:10179000904219D1FFF79EF800EBC00101EB001059
:1017A0006168B0464900B0FBF1F1B1FBF8F6FFF714
:1017B00091F800EBC00101EB001061684900B0FB3B
:1017C000F1F7FFF787F818E0FFF76EF800EBC001BC
:1017D00001EB00106168B0464900B0FBF1F1B1FBCC
:1017E000F8F6FFF761F800EBC00101EB001061684B
:1017F0004900B0FBF1F7FFF757F800EBC00101EB30
:10180000001061684900B0FBF1F1B1FBF8F06FF036
:101810001801484307EB800005EB0011B1FBF8F01D
:10182000216866F31F108860BDE8F081FFF73CF87F
:1018300000EBC00101EB00106168B0468900B0FB0D
:10184000F1F1B1FBF8F6FFF72FF800EBC00101EB67
:10185000001061688900B0FBF1F7FFF725F800EB95
:10186000C00101EB001061688900CCE70014014061
:101870000010014090F83910122903D0322901D00C
:10188000022070478168B1F5805F016A0BD04A1C65
:101890000262026809785160C18C491E0904090C72
:1018A000C1840ED017E009880268C1F308015160B5
:1018B00001690029016A02D0491C0162ECE7891C18
:1018C000FBE70168CA6822F08002CA600068C1684C
:1018D00041F04001C160002070472DE9F0471D46EE
:1018E00090460F460446FEF705FE06465FEA0800EE
:1018F0004FF000094FF0010808D030E0681C05D017
:1019000095B1FEF7F7FD801BA8420DD8206800684E
:1019100037EA0000F2D127E0681C20D025B1FEF79D
:10192000E9FD801BA8421AD92068C16821F0800116
:10193000C1602068C16821F02001C1602068C168D1
:1019400021F48071C1602068416921F00101416189
:1019500084F8398084F838900320BDE8F087206847
:10196000006837EA0000D7D00020F6E710B5054838
:10197000FFF7C1FABDE81040012203490148FFF713
:10198000CFBB0000B80000201C000020012202494B
:101990000248FFF7C5BB00001C000020B800002073
:1019A000FEE7000010B504460420FFF771F9014876
:1019B000046010BD18000020FEF7AAFD08230222D3
:1019C00019214FF4B470FFF78FFCB420FFF7EAFF42
:1019D00000F008F800F01AF8FFF7D8FFFFF7F2FC64
:1019E000FEE700000848074901604FF4E13141601B
:1019F000002181600C22C160C0E905210161FFF76F
:101A0000F4BA00000010014078000020084807499F
:101A100001604FF416514160002181600C22C160C9
:101A2000C0E905210161FFF7E0BA0000004800406D
:101A3000B80000204FF04070E1EE100A704700003F
:101A40000000010203040102030406070809000064
:101A5000701A00080000002020000000E8010008C3
:101A6000901A000820000020380700000402000837
:101A70000024F40000000000000000000102030444
:101A80000607080900000000000000000000000038
:04000005080001AD41
:00000001FF
